{
  "contractName": "AdminContract",
  "abi": [
    {
      "inputs": [
        {
          "internalType": "address payable",
          "name": "_proxy",
          "type": "address"
        }
      ],
      "stateMutability": "nonpayable",
      "type": "constructor"
    },
    {
      "inputs": [],
      "name": "admin",
      "outputs": [
        {
          "internalType": "address",
          "name": "",
          "type": "address"
        }
      ],
      "stateMutability": "view",
      "type": "function"
    },
    {
      "inputs": [],
      "name": "proxy",
      "outputs": [
        {
          "internalType": "contract ProxyContract",
          "name": "",
          "type": "address"
        }
      ],
      "stateMutability": "view",
      "type": "function"
    },
    {
      "inputs": [
        {
          "internalType": "address",
          "name": "_newImplementation",
          "type": "address"
        }
      ],
      "name": "upgradeImplementation",
      "outputs": [],
      "stateMutability": "nonpayable",
      "type": "function"
    }
  ],
  "bytecode": "0x608060405234801561001057600080fd5b506040516105be3803806105be8339818101604052810190610032919061015c565b336000806101000a81548173ffffffffffffffffffffffffffffffffffffffff021916908373ffffffffffffffffffffffffffffffffffffffff16021790555080600160006101000a81548173ffffffffffffffffffffffffffffffffffffffff021916908373ffffffffffffffffffffffffffffffffffffffff160217905550336000806101000a81548173ffffffffffffffffffffffffffffffffffffffff021916908373ffffffffffffffffffffffffffffffffffffffff16021790555050610189565b600080fd5b600073ffffffffffffffffffffffffffffffffffffffff82169050919050565b6000610129826100fe565b9050919050565b6101398161011e565b811461014457600080fd5b50565b60008151905061015681610130565b92915050565b600060208284031215610172576101716100f9565b5b600061018084828501610147565b91505092915050565b610426806101986000396000f3fe608060405234801561001057600080fd5b506004361061005e576000357c01000000000000000000000000000000000000000000000000000000009004806383f94db714610063578063ec5568891461007f578063f851a4401461009d575b600080fd5b61007d600480360381019061007891906102a2565b6100bb565b005b6100876101f5565b604051610094919061032e565b60405180910390f35b6100a561021b565b6040516100b29190610358565b60405180910390f35b60008054906101000a900473ffffffffffffffffffffffffffffffffffffffff1673ffffffffffffffffffffffffffffffffffffffff163373ffffffffffffffffffffffffffffffffffffffff1614610149576040517f08c379a0000000000000000000000000000000000000000000000000000000008152600401610140906103d0565b60405180910390fd5b600160009054906101000a900473ffffffffffffffffffffffffffffffffffffffff1673ffffffffffffffffffffffffffffffffffffffff1663d784d426826040518263ffffffff167c01000000000000000000000000000000000000000000000000000000000281526004016101c09190610358565b600060405180830381600087803b1580156101da57600080fd5b505af11580156101ee573d6000803e3d6000fd5b5050505050565b600160009054906101000a900473ffffffffffffffffffffffffffffffffffffffff1681565b60008054906101000a900473ffffffffffffffffffffffffffffffffffffffff1681565b600080fd5b600073ffffffffffffffffffffffffffffffffffffffff82169050919050565b600061026f82610244565b9050919050565b61027f81610264565b811461028a57600080fd5b50565b60008135905061029c81610276565b92915050565b6000602082840312156102b8576102b761023f565b5b60006102c68482850161028d565b91505092915050565b6000819050919050565b60006102f46102ef6102ea84610244565b6102cf565b610244565b9050919050565b6000610306826102d9565b9050919050565b6000610318826102fb565b9050919050565b6103288161030d565b82525050565b6000602082019050610343600083018461031f565b92915050565b61035281610264565b82525050565b600060208201905061036d6000830184610349565b92915050565b600082825260208201905092915050565b7f6f6e6c792061646d696e2063616e2063616c6c00000000000000000000000000600082015250565b60006103ba601383610373565b91506103c582610384565b602082019050919050565b600060208201905081810360008301526103e9816103ad565b905091905056fea264697066735822122030b901fc87874aee71c5c42719aa9f1786062bc719662593334a3812b5f8261b64736f6c63430008150033",
  "immutableReferences": {},
  "source": "// SPDX-License-Identifier: MIT\npragma solidity ^0.8.21;\n\nimport \"./ProxyContract.sol\";\nimport \"./BaseContract.sol\";\n\ncontract AdminContract is BaseContract{\n    ProxyContract public proxy;\n\n    constructor(address payable _proxy){\n        proxy = ProxyContract(_proxy);\n        admin = msg.sender;\n    }\n\n    function upgradeImplementation(address _newImplementation) public onlyAdmin {\n        proxy.setImplementation(_newImplementation);\n    }\n}",
  "sourcePath": "/Users/chenyilong/VScode/ELONWALLET/ellonwalletContract/contracts/AdminContract.sol",
  "compiler": {
    "name": "solc",
    "version": "0.8.21+commit.d9974bed.Emscripten.clang"
  },
  "schemaVersion": "3.4.16",
  "updatedAt": "2025-03-21T08:04:14.539Z",
  "networkType": "ethereum",
  "devdoc": {
    "kind": "dev",
    "methods": {},
    "version": 1
  },
  "userdoc": {
    "kind": "user",
    "methods": {},
    "version": 1
  }
}