{
  "contractName": "BaseContract",
  "abi": [
    {
      "inputs": [],
      "stateMutability": "nonpayable",
      "type": "constructor"
    },
    {
      "inputs": [],
      "name": "admin",
      "outputs": [
        {
          "internalType": "address",
          "name": "",
          "type": "address"
        }
      ],
      "stateMutability": "view",
      "type": "function"
    }
  ],
  "bytecode": "0x608060405234801561001057600080fd5b50336000806101000a81548173ffffffffffffffffffffffffffffffffffffffff021916908373ffffffffffffffffffffffffffffffffffffffff160217905550610114806100606000396000f3fe6080604052348015600f57600080fd5b50600436106045576000357c010000000000000000000000000000000000000000000000000000000090048063f851a44014604a575b600080fd5b60506064565b604051605b919060c5565b60405180910390f35b60008054906101000a900473ffffffffffffffffffffffffffffffffffffffff1681565b600073ffffffffffffffffffffffffffffffffffffffff82169050919050565b600060b1826088565b9050919050565b60bf8160a8565b82525050565b600060208201905060d8600083018460b8565b9291505056fea264697066735822122056737595c62924c297597b57086e5e9f2cdae35d1910f18088dea2afbe5c3ec764736f6c63430008150033",
  "immutableReferences": {},
  "source": "// SPDX-License-Identifier: MIT\npragma solidity ^0.8.21;\n\ncontract BaseContract{\n    address public admin;\n    constructor(){\n        admin = msg.sender;\n    }\n\n    modifier onlyAdmin(){\n        require(msg.sender == admin,\"only admin can call\");\n        _;\n    }\n}",
  "sourcePath": "/Users/chenyilong/VScode/ELONWALLET/ellonwalletContract/contracts/BaseContract.sol",
  "compiler": {
    "name": "solc",
    "version": "0.8.21+commit.d9974bed.Emscripten.clang"
  },
  "schemaVersion": "3.4.16",
  "updatedAt": "2025-03-21T07:53:28.483Z",
  "devdoc": {
    "kind": "dev",
    "methods": {},
    "version": 1
  },
  "userdoc": {
    "kind": "user",
    "methods": {},
    "version": 1
  }
}