{
  "contractName": "ProxyContract",
  "abi": [
    {
      "inputs": [
        {
          "internalType": "address",
          "name": "_implementation",
          "type": "address"
        }
      ],
      "stateMutability": "nonpayable",
      "type": "constructor"
    },
    {
      "stateMutability": "payable",
      "type": "fallback"
    },
    {
      "inputs": [],
      "name": "admin",
      "outputs": [
        {
          "internalType": "address",
          "name": "",
          "type": "address"
        }
      ],
      "stateMutability": "view",
      "type": "function"
    },
    {
      "inputs": [],
      "name": "implementation",
      "outputs": [
        {
          "internalType": "address",
          "name": "",
          "type": "address"
        }
      ],
      "stateMutability": "view",
      "type": "function"
    },
    {
      "stateMutability": "payable",
      "type": "receive"
    },
    {
      "inputs": [
        {
          "internalType": "address",
          "name": "_newImplementation",
          "type": "address"
        }
      ],
      "name": "setImplementation",
      "outputs": [],
      "stateMutability": "nonpayable",
      "type": "function"
    }
  ],
  "bytecode": "0x608060405234801561001057600080fd5b506040516104c83803806104c8833981810160405281019061003291906100db565b806000806101000a81548173ffffffffffffffffffffffffffffffffffffffff021916908373ffffffffffffffffffffffffffffffffffffffff16021790555050610108565b600080fd5b600073ffffffffffffffffffffffffffffffffffffffff82169050919050565b60006100a88261007d565b9050919050565b6100b88161009d565b81146100c357600080fd5b50565b6000815190506100d5816100af565b92915050565b6000602082840312156100f1576100f0610078565b5b60006100ff848285016100c6565b91505092915050565b6103b1806101176000396000f3fe608060405260043610610055576000357c0100000000000000000000000000000000000000000000000000000000900480635c60da1b146100a8578063d784d426146100d3578063f851a440146100fc5761005c565b3661005c57005b60008060009054906101000a900473ffffffffffffffffffffffffffffffffffffffff1690503660008037600080366000845af43d6000803e80600081146100a3573d6000f35b3d6000fd5b3480156100b457600080fd5b506100bd610127565b6040516100ca9190610285565b60405180910390f35b3480156100df57600080fd5b506100fa60048036038101906100f591906102d1565b61014b565b005b34801561010857600080fd5b5061011161021e565b60405161011e9190610285565b60405180910390f35b60008054906101000a900473ffffffffffffffffffffffffffffffffffffffff1681565b600160009054906101000a900473ffffffffffffffffffffffffffffffffffffffff1673ffffffffffffffffffffffffffffffffffffffff163373ffffffffffffffffffffffffffffffffffffffff16146101db576040517f08c379a00000000000000000000000000000000000000000000000000000000081526004016101d29061035b565b60405180910390fd5b806000806101000a81548173ffffffffffffffffffffffffffffffffffffffff021916908373ffffffffffffffffffffffffffffffffffffffff16021790555050565b600160009054906101000a900473ffffffffffffffffffffffffffffffffffffffff1681565b600073ffffffffffffffffffffffffffffffffffffffff82169050919050565b600061026f82610244565b9050919050565b61027f81610264565b82525050565b600060208201905061029a6000830184610276565b92915050565b600080fd5b6102ae81610264565b81146102b957600080fd5b50565b6000813590506102cb816102a5565b92915050565b6000602082840312156102e7576102e66102a0565b5b60006102f5848285016102bc565b91505092915050565b600082825260208201905092915050565b7f6f6e6c792061646d696e2063616e2063616c6c00000000000000000000000000600082015250565b60006103456013836102fe565b91506103508261030f565b602082019050919050565b6000602082019050818103600083015261037481610338565b905091905056fea26469706673582212203aef7d7ada93a673af1163b46f12fd9e74d77010d47c1b470127a054cbf0a37e64736f6c63430008150033",
  "immutableReferences": {},
  "source": "// SPDX-License-Identifier: MIT\npragma solidity ^0.8.21;\n\n//import \"./BaseContract.sol\";\n\ncontract ProxyContract {\n    address public implementation;\n     address public admin;\n    constructor(address _implementation){\n        implementation = _implementation;\n    }\n\n     modifier onlyAdmin(){\n        require(msg.sender == admin,\"only admin can call\");\n        _;\n    }\n\n    function setImplementation(address _newImplementation) public onlyAdmin {\n        implementation = _newImplementation;\n    }\n\n    fallback() external payable {\n        address _impl = implementation;\n        assembly {\n            calldatacopy(0,0,calldatasize())\n            //call the implementation\n            let result := delegatecall(gas(),_impl,0,calldatasize(),0,0)\n            //copy returned data\n            returndatacopy(0,0,returndatasize())\n\n            switch result\n            case 0 {revert(0,returndatasize())}\n            default {return(0,returndatasize())}\n        }\n    }\n    receive() external payable {}\n}",
  "sourcePath": "/Users/chenyilong/VScode/ELONWALLET/ellonwalletContract/contracts/ProxyContract.sol",
  "compiler": {
    "name": "solc",
    "version": "0.8.21+commit.d9974bed.Emscripten.clang"
  },
  "schemaVersion": "3.4.16",
  "updatedAt": "2025-03-21T07:53:28.492Z",
  "devdoc": {
    "kind": "dev",
    "methods": {},
    "version": 1
  },
  "userdoc": {
    "kind": "user",
    "methods": {},
    "version": 1
  }
}