{
  "contractName": "TransferWithSignature",
  "abi": [
    {
      "inputs": [],
      "name": "InvalidInitialization",
      "type": "error"
    },
    {
      "inputs": [],
      "name": "NotInitializing",
      "type": "error"
    },
    {
      "anonymous": false,
      "inputs": [
        {
          "indexed": false,
          "internalType": "uint64",
          "name": "version",
          "type": "uint64"
        }
      ],
      "name": "Initialized",
      "type": "event"
    },
    {
      "anonymous": false,
      "inputs": [
        {
          "indexed": false,
          "internalType": "bool",
          "name": "result",
          "type": "bool"
        },
        {
          "indexed": false,
          "internalType": "address",
          "name": "expected",
          "type": "address"
        },
        {
          "indexed": false,
          "internalType": "address",
          "name": "recovered",
          "type": "address"
        }
      ],
      "name": "SignatureVerified",
      "type": "event"
    },
    {
      "inputs": [],
      "name": "admin",
      "outputs": [
        {
          "internalType": "address",
          "name": "",
          "type": "address"
        }
      ],
      "stateMutability": "view",
      "type": "function",
      "constant": true
    },
    {
      "stateMutability": "payable",
      "type": "receive",
      "payable": true
    },
    {
      "inputs": [],
      "name": "initialize",
      "outputs": [],
      "stateMutability": "nonpayable",
      "type": "function"
    },
    {
      "inputs": [
        {
          "internalType": "address",
          "name": "from",
          "type": "address"
        },
        {
          "internalType": "address",
          "name": "to",
          "type": "address"
        },
        {
          "internalType": "uint256",
          "name": "amount",
          "type": "uint256"
        },
        {
          "internalType": "bytes",
          "name": "signature",
          "type": "bytes"
        }
      ],
      "name": "transferWithSignature",
      "outputs": [],
      "stateMutability": "nonpayable",
      "type": "function"
    }
  ],
  "bytecode": "0x608060405234801561001057600080fd5b50610e71806100206000396000f3fe608060405260043610610055576000357c0100000000000000000000000000000000000000000000000000000000900480632a8399df146100615780638129fc1c1461008a578063f851a440146100a15761005c565b3661005c57005b600080fd5b34801561006d57600080fd5b506100886004803603810190610083919061086d565b6100cc565b005b34801561009657600080fd5b5061009f61024c565b005b3480156100ad57600080fd5b506100b6610411565b6040516100c391906108ff565b60405180910390f35b60008054906101000a900473ffffffffffffffffffffffffffffffffffffffff1673ffffffffffffffffffffffffffffffffffffffff163373ffffffffffffffffffffffffffffffffffffffff161461015a576040517f08c379a000000000000000000000000000000000000000000000000000000000815260040161015190610977565b60405180910390fd5b61016684848484610435565b6101a5576040517f08c379a000000000000000000000000000000000000000000000000000000000815260040161019c906109e3565b60405180910390fd5b818473ffffffffffffffffffffffffffffffffffffffff163110156101ff576040517f08c379a00000000000000000000000000000000000000000000000000000000081526004016101f690610a4f565b60405180910390fd5b8273ffffffffffffffffffffffffffffffffffffffff166108fc839081150290604051600060405180830381858888f19350505050158015610245573d6000803e3d6000fd5b5050505050565b60006102566104f7565b905060008160000160089054906101000a900460ff1615905060008260000160009054906101000a900467ffffffffffffffff1690506000808267ffffffffffffffff161480156102a45750825b9050600060018367ffffffffffffffff161480156102d9575060003073ffffffffffffffffffffffffffffffffffffffff163b145b9050811580156102e7575080155b1561031e576040517ff92ee8a900000000000000000000000000000000000000000000000000000000815260040160405180910390fd5b60018560000160006101000a81548167ffffffffffffffff021916908367ffffffffffffffff160217905550831561036e5760018560000160086101000a81548160ff0219169083151502179055505b336000806101000a81548173ffffffffffffffffffffffffffffffffffffffff021916908373ffffffffffffffffffffffffffffffffffffffff160217905550831561040a5760008560000160086101000a81548160ff0219169083151502179055507fc7f505b2f371ae2175ee4913f4499e1f2633a7b5936321eed1cdaeb6115181d260016040516104019190610ac8565b60405180910390a15b5050505050565b60008054906101000a900473ffffffffffffffffffffffffffffffffffffffff1681565b60008061046b86868660405160200161045093929190610b58565b6040516020818303038152906040528051906020012061051f565b90506000610479828561054f565b905060008773ffffffffffffffffffffffffffffffffffffffff168273ffffffffffffffffffffffffffffffffffffffff161490507f1cd90c4db08f0b169b20cf57c914623968e58a0fea4b6ea40e5fac2221a619b88189846040516104e193929190610bb0565b60405180910390a1809350505050949350505050565b60007ff0c57e16840df040f15088dc2f81fe391c3923bec73e23a9662efc9c229c6a00905090565b6000816040516020016105329190610c69565b604051602081830303815290604052805190602001209050919050565b6000806000806041855114610599576040517f08c379a000000000000000000000000000000000000000000000000000000000815260040161059090610cdb565b60405180910390fd5b6020850151925060408501519150606085015160001a9050601b8160ff1610156105cd57601b816105ca9190610d37565b90505b601b8160ff16141580156105e55750601c8160ff1614155b15610625576040517f08c379a000000000000000000000000000000000000000000000000000000000815260040161061c90610db8565b60405180910390fd5b600186828585604051600081526020016040526040516106489493929190610df6565b6020604051602081039080840390855afa15801561066a573d6000803e3d6000fd5b50505060206040510351935050505092915050565b6000604051905090565b600080fd5b600080fd5b600073ffffffffffffffffffffffffffffffffffffffff82169050919050565b60006106be82610693565b9050919050565b6106ce816106b3565b81146106d957600080fd5b50565b6000813590506106eb816106c5565b92915050565b6000819050919050565b610704816106f1565b811461070f57600080fd5b50565b600081359050610721816106fb565b92915050565b600080fd5b600080fd5b6000601f19601f8301169050919050565b7f4e487b7100000000000000000000000000000000000000000000000000000000600052604160045260246000fd5b61077a82610731565b810181811067ffffffffffffffff8211171561079957610798610742565b5b80604052505050565b60006107ac61067f565b90506107b88282610771565b919050565b600067ffffffffffffffff8211156107d8576107d7610742565b5b6107e182610731565b9050602081019050919050565b82818337600083830152505050565b600061081061080b846107bd565b6107a2565b90508281526020810184848401111561082c5761082b61072c565b5b6108378482856107ee565b509392505050565b600082601f83011261085457610853610727565b5b81356108648482602086016107fd565b91505092915050565b6000806000806080858703121561088757610886610689565b5b6000610895878288016106dc565b94505060206108a6878288016106dc565b93505060406108b787828801610712565b925050606085013567ffffffffffffffff8111156108d8576108d761068e565b5b6108e48782880161083f565b91505092959194509250565b6108f9816106b3565b82525050565b600060208201905061091460008301846108f0565b92915050565b600082825260208201905092915050565b7f6f6e6c792061646d696e2063616e2063616c6c00000000000000000000000000600082015250565b600061096160138361091a565b915061096c8261092b565b602082019050919050565b6000602082019050818103600083015261099081610954565b9050919050565b7f696e76616c6964207369676e6174757265000000000000000000000000000000600082015250565b60006109cd60118361091a565b91506109d882610997565b602082019050919050565b600060208201905081810360008301526109fc816109c0565b9050919050565b7f696e73756666696369656e742062616c616e6365000000000000000000000000600082015250565b6000610a3960148361091a565b9150610a4482610a03565b602082019050919050565b60006020820190508181036000830152610a6881610a2c565b9050919050565b6000819050919050565b600067ffffffffffffffff82169050919050565b6000819050919050565b6000610ab2610aad610aa884610a6f565b610a8d565b610a79565b9050919050565b610ac281610a97565b82525050565b6000602082019050610add6000830184610ab9565b92915050565b60006c0100000000000000000000000082029050919050565b6000610b0782610ae3565b9050919050565b6000610b1982610afc565b9050919050565b610b31610b2c826106b3565b610b0e565b82525050565b6000819050919050565b610b52610b4d826106f1565b610b37565b82525050565b6000610b648286610b20565b601482019150610b748285610b20565b601482019150610b848284610b41565b602082019150819050949350505050565b60008115159050919050565b610baa81610b95565b82525050565b6000606082019050610bc56000830186610ba1565b610bd260208301856108f0565b610bdf60408301846108f0565b949350505050565b600081905092915050565b7f19457468657265756d205369676e6564204d6573736167653a0a333200000000600082015250565b6000610c28601c83610be7565b9150610c3382610bf2565b601c82019050919050565b6000819050919050565b6000819050919050565b610c63610c5e82610c3e565b610c48565b82525050565b6000610c7482610c1b565b9150610c808284610c52565b60208201915081905092915050565b7f496e76616c6964207369676e6174757265206c656e6774680000000000000000600082015250565b6000610cc560188361091a565b9150610cd082610c8f565b602082019050919050565b60006020820190508181036000830152610cf481610cb8565b9050919050565b600060ff82169050919050565b7f4e487b7100000000000000000000000000000000000000000000000000000000600052601160045260246000fd5b6000610d4282610cfb565b9150610d4d83610cfb565b9250828201905060ff811115610d6657610d65610d08565b5b92915050565b7f496e76616c6964207369676e617475726520762076616c756500000000000000600082015250565b6000610da260198361091a565b9150610dad82610d6c565b602082019050919050565b60006020820190508181036000830152610dd181610d95565b9050919050565b610de181610c3e565b82525050565b610df081610cfb565b82525050565b6000608082019050610e0b6000830187610dd8565b610e186020830186610de7565b610e256040830185610dd8565b610e326060830184610dd8565b9594505050505056fea26469706673582212208fd7c27f2440c1302bd9955b1aa629745b8aede49ba932be8d854aac6f60c72064736f6c63430008150033",
  "immutableReferences": {},
  "source": "// SPDX-License-Identifier: MIT\npragma solidity ^0.8.21;\n\nimport \"@openzeppelin/contracts-upgradeable/proxy/utils/Initializable.sol\";\n\ncontract TransferWithSignature is Initializable{\n    // \n    address public admin;\n\n    event SignatureVerified(bool result, address expected, address recovered);\n\n    function initialize() initializer public {\n        admin = msg.sender;\n    }\n\n    modifier onlyAdmin() {\n        require(msg.sender == admin, \"only admin can call\");\n        _;\n    }\n\n    // \n    function verifySignature(\n        address from,\n        address to,\n        uint256 amount,\n        bytes memory signature\n    ) internal returns (bool) {\n        // \n        bytes32 message = prefixed(keccak256(abi.encodePacked(from, to, amount)));\n        // \n        address recovered = recoverSignature(message, signature);\n        bool result = recovered == from;\n        emit SignatureVerified(result, from, recovered);\n        return result;\n    }\n\n    // \n    function recoverSignature(bytes32 message, bytes memory signature)\n        internal\n        pure\n        returns (address)\n    {\n        bytes32 r;\n        bytes32 s;\n        uint8 v;\n\n        if (signature.length != 65) {\n            revert(\"Invalid signature length\");\n        }\n\n        assembly {\n            r := mload(add(signature, 32))\n            s := mload(add(signature, 64))\n            v := byte(0, mload(add(signature, 96)))\n        }\n        if (v < 27) {\n            v += 27;\n        }\n        if (v != 27 && v != 28) {\n            revert(\"Invalid signature v value\");\n        }\n        // \n        return ecrecover(message, v, r, s);\n    }\n\n    // \n    function prefixed(bytes32 hash) internal pure returns (bytes32) {\n        return keccak256(abi.encodePacked(\"\\x19Ethereum Signed Message:\\n32\", hash));\n    }\n\n    // \n    function transferWithSignature(\n        address from,\n        address to,\n        uint256 amount,\n        bytes memory signature\n    ) external onlyAdmin {\n        require(verifySignature(from, to, amount, signature), \"invalid signature\");\n        require(from.balance >= amount, \"insufficient balance\");\n        payable(to).transfer(amount);\n    }\n\n    receive() external payable {}\n}\n\n\n\n",
  "sourcePath": "/Users/chenyilong/VScode/ELONWALLET/ellonwalletContract/contracts/TransferWithSignature.sol",
  "compiler": {
    "name": "solc",
    "version": "0.8.21+commit.d9974bed.Emscripten.clang"
  },
  "schemaVersion": "3.4.16",
  "updatedAt": "2025-03-21T08:04:14.523Z",
  "networkType": "ethereum",
  "devdoc": {
    "errors": {
      "InvalidInitialization()": [
        {
          "details": "The contract is already initialized."
        }
      ],
      "NotInitializing()": [
        {
          "details": "The contract is not initializing."
        }
      ]
    },
    "events": {
      "Initialized(uint64)": {
        "details": "Triggered when the contract has been initialized or reinitialized."
      }
    },
    "kind": "dev",
    "methods": {},
    "version": 1
  },
  "userdoc": {
    "kind": "user",
    "methods": {},
    "version": 1
  }
}